{
  "contractName": "Storage",
  "abi": [
    {
      "constant": true,
      "inputs": [],
      "name": "owner",
      "outputs": [
        {
          "name": "",
          "type": "address"
        }
      ],
      "payable": false,
      "stateMutability": "view",
      "type": "function"
    },
    {
      "inputs": [],
      "payable": false,
      "stateMutability": "nonpayable",
      "type": "constructor"
    },
    {
      "anonymous": false,
      "inputs": [
        {
          "indexed": false,
          "name": "number",
          "type": "uint256"
        }
      ],
      "name": "NumberChanged",
      "type": "event"
    },
    {
      "constant": false,
      "inputs": [
        {
          "name": "_number",
          "type": "uint256"
        }
      ],
      "name": "setNumber",
      "outputs": [],
      "payable": false,
      "stateMutability": "nonpayable",
      "type": "function"
    },
    {
      "constant": true,
      "inputs": [],
      "name": "getNumber",
      "outputs": [
        {
          "name": "",
          "type": "uint256"
        }
      ],
      "payable": false,
      "stateMutability": "view",
      "type": "function"
    }
  ],
  "bytecode": "0x608060405234801561001057600080fd5b50336000806101000a81548173ffffffffffffffffffffffffffffffffffffffff021916908373ffffffffffffffffffffffffffffffffffffffff160217905550600560018190555061017a806100686000396000f3fe608060405234801561001057600080fd5b50600436106100415760003560e01c80633fb5c1cb146100465780638da5cb5b14610074578063f2c9ecd8146100be575b600080fd5b6100726004803603602081101561005c57600080fd5b81019080803590602001909291905050506100dc565b005b61007c61011f565b604051808273ffffffffffffffffffffffffffffffffffffffff1673ffffffffffffffffffffffffffffffffffffffff16815260200191505060405180910390f35b6100c6610144565b6040518082815260200191505060405180910390f35b806001819055507f2fd81fd19d3c5c4b396dd13f451dafc8bcac1b3094c49c5fa90e68456323f0e36001546040518082815260200191505060405180910390a150565b6000809054906101000a900473ffffffffffffffffffffffffffffffffffffffff1681565b600060015490509056fea165627a7a72305820b19f701cacb88c6c9119eb71b9f675df8be4f7a2712cef17e5fd3632084e32b20029",
  "source": "pragma solidity >=0.4.21 <0.6.0;\n\ncontract Storage {\n  address public owner;\n  uint number;\n\n  event NumberChanged(uint number);\n  constructor() public {\n    owner = msg.sender;\n    number = 5;\n  }\n\n  modifier restricted() {\n    if (msg.sender == owner) _;\n  }\n\n  function setNumber(uint _number) public {\n    number = _number;\n    emit NumberChanged(number);\n  }\n\n  function getNumber() public view returns(uint) {\n    return number;\n  }\n}\n",
  "sourcePath": "/home/luis/consensys/rapid-playground/packages/apps/ethers-demo/contracts/Storage.sol",
  "compiler": {
    "name": "solc",
    "version": "0.5.8+commit.23d335f2.Emscripten.clang"
  },
  "schemaVersion": "3.0.16",
  "updatedAt": "2019-11-18T02:30:02.888Z",
  "devdoc": {
    "methods": {}
  },
  "userdoc": {
    "methods": {}
  }
}